{
	"Lottery.sol": {
		"Lottery": {
			"abi": [
				{
					"inputs": [],
					"stateMutability": "nonpayable",
					"type": "constructor"
				},
				{
					"inputs": [],
					"name": "getMoney",
					"outputs": [
						{
							"internalType": "uint256",
							"name": "",
							"type": "uint256"
						}
					],
					"stateMutability": "view",
					"type": "function"
				},
				{
					"inputs": [],
					"name": "manager",
					"outputs": [
						{
							"internalType": "address",
							"name": "",
							"type": "address"
						}
					],
					"stateMutability": "view",
					"type": "function"
				},
				{
					"inputs": [
						{
							"internalType": "uint256",
							"name": "",
							"type": "uint256"
						}
					],
					"name": "participants",
					"outputs": [
						{
							"internalType": "address payable",
							"name": "",
							"type": "address"
						}
					],
					"stateMutability": "view",
					"type": "function"
				},
				{
					"inputs": [],
					"name": "random",
					"outputs": [
						{
							"internalType": "uint256",
							"name": "",
							"type": "uint256"
						}
					],
					"stateMutability": "view",
					"type": "function"
				},
				{
					"inputs": [],
					"name": "selectWinner",
					"outputs": [
						{
							"internalType": "address",
							"name": "",
							"type": "address"
						}
					],
					"stateMutability": "view",
					"type": "function"
				},
				{
					"stateMutability": "payable",
					"type": "receive"
				}
			],
			"devdoc": {
				"kind": "dev",
				"methods": {},
				"version": 1
			},
			"evm": {
				"assembly": "    /* \"Lottery.sol\":73:1047  contract Lottery{\r... */\n  mstore(0x40, 0x80)\n    /* \"Lottery.sol\":197:270  constructor(){\r... */\n  callvalue\n  dup1\n  iszero\n  tag_1\n  jumpi\n  0x00\n  dup1\n  revert\ntag_1:\n  pop\n    /* \"Lottery.sol\":231:241  msg.sender */\n  caller\n    /* \"Lottery.sol\":221:228  manager */\n  0x00\n  dup1\n    /* \"Lottery.sol\":221:241  manager = msg.sender */\n  0x0100\n  exp\n  dup2\n  sload\n  dup2\n  0xffffffffffffffffffffffffffffffffffffffff\n  mul\n  not\n  and\n  swap1\n  dup4\n  0xffffffffffffffffffffffffffffffffffffffff\n  and\n  mul\n  or\n  swap1\n  sstore\n  pop\n    /* \"Lottery.sol\":73:1047  contract Lottery{\r... */\n  dataSize(sub_0)\n  dup1\n  dataOffset(sub_0)\n  0x00\n  codecopy\n  0x00\n  return\nstop\n\nsub_0: assembly {\n        /* \"Lottery.sol\":73:1047  contract Lottery{\r... */\n      mstore(0x40, 0x80)\n      jumpi(tag_1, lt(calldatasize, 0x04))\n      shr(0xe0, calldataload(0x00))\n      dup1\n      0x33a99e04\n      eq\n      tag_3\n      jumpi\n      dup1\n      0x35c1d349\n      eq\n      tag_4\n      jumpi\n      dup1\n      0x481c6a75\n      eq\n      tag_5\n      jumpi\n      dup1\n      0x5ec01e4d\n      eq\n      tag_6\n      jumpi\n      dup1\n      0x98e1b410\n      eq\n      tag_7\n      jumpi\n      jump(tag_2)\n    tag_1:\n      jumpi(tag_2, calldatasize)\n        /* \"Lottery.sol\":336:343  1 ether */\n      0x0de0b6b3a7640000\n        /* \"Lottery.sol\":323:332  msg.value */\n      callvalue\n        /* \"Lottery.sol\":323:343  msg.value == 1 ether */\n      eq\n        /* \"Lottery.sol\":315:344  require(msg.value == 1 ether) */\n      tag_10\n      jumpi\n      0x00\n      dup1\n      revert\n    tag_10:\n        /* \"Lottery.sol\":355:367  participants */\n      0x01\n        /* \"Lottery.sol\":381:391  msg.sender */\n      caller\n        /* \"Lottery.sol\":355:393  participants.push(payable(msg.sender)) */\n      swap1\n      dup1\n      0x01\n      dup2\n      sload\n      add\n      dup1\n      dup3\n      sstore\n      dup1\n      swap2\n      pop\n      pop\n      0x01\n      swap1\n      sub\n      swap1\n      0x00\n      mstore\n      keccak256(0x00, 0x20)\n      add\n      0x00\n      swap1\n      swap2\n      swap1\n      swap2\n      swap1\n      swap2\n      0x0100\n      exp\n      dup2\n      sload\n      dup2\n      0xffffffffffffffffffffffffffffffffffffffff\n      mul\n      not\n      and\n      swap1\n      dup4\n      0xffffffffffffffffffffffffffffffffffffffff\n      and\n      mul\n      or\n      swap1\n      sstore\n      pop\n        /* \"Lottery.sol\":73:1047  contract Lottery{\r... */\n      stop\n    tag_2:\n      0x00\n      dup1\n      revert\n        /* \"Lottery.sol\":899:1044  function selectWinner() public view returns(address){\r... */\n    tag_3:\n      callvalue\n      dup1\n      iszero\n      tag_12\n      jumpi\n      0x00\n      dup1\n      revert\n    tag_12:\n      pop\n      tag_13\n      tag_14\n      jump\t// in\n    tag_13:\n      mload(0x40)\n      tag_15\n      swap2\n      swap1\n      tag_16\n      jump\t// in\n    tag_15:\n      mload(0x40)\n      dup1\n      swap2\n      sub\n      swap1\n      return\n        /* \"Lottery.sol\":125:162  address payable[] public participants */\n    tag_4:\n      callvalue\n      dup1\n      iszero\n      tag_17\n      jumpi\n      0x00\n      dup1\n      revert\n    tag_17:\n      pop\n      tag_18\n      0x04\n      dup1\n      calldatasize\n      sub\n      dup2\n      add\n      swap1\n      tag_19\n      swap2\n      swap1\n      tag_20\n      jump\t// in\n    tag_19:\n      tag_21\n      jump\t// in\n    tag_18:\n      mload(0x40)\n      tag_22\n      swap2\n      swap1\n      tag_23\n      jump\t// in\n    tag_22:\n      mload(0x40)\n      dup1\n      swap2\n      sub\n      swap1\n      return\n        /* \"Lottery.sol\":96:118  address public manager */\n    tag_5:\n      callvalue\n      dup1\n      iszero\n      tag_24\n      jumpi\n      0x00\n      dup1\n      revert\n    tag_24:\n      pop\n      tag_25\n      tag_26\n      jump\t// in\n    tag_25:\n      mload(0x40)\n      tag_27\n      swap2\n      swap1\n      tag_16\n      jump\t// in\n    tag_27:\n      mload(0x40)\n      dup1\n      swap2\n      sub\n      swap1\n      return\n        /* \"Lottery.sol\":735:891  function random() public view returns(uint){\r... */\n    tag_6:\n      callvalue\n      dup1\n      iszero\n      tag_28\n      jumpi\n      0x00\n      dup1\n      revert\n    tag_28:\n      pop\n      tag_29\n      tag_30\n      jump\t// in\n    tag_29:\n      mload(0x40)\n      tag_31\n      swap2\n      swap1\n      tag_32\n      jump\t// in\n    tag_31:\n      mload(0x40)\n      dup1\n      swap2\n      sub\n      swap1\n      return\n        /* \"Lottery.sol\":594:727  function getMoney() public view returns(uint){\r... */\n    tag_7:\n      callvalue\n      dup1\n      iszero\n      tag_33\n      jumpi\n      0x00\n      dup1\n      revert\n    tag_33:\n      pop\n      tag_34\n      tag_35\n      jump\t// in\n    tag_34:\n      mload(0x40)\n      tag_36\n      swap2\n      swap1\n      tag_32\n      jump\t// in\n    tag_36:\n      mload(0x40)\n      dup1\n      swap2\n      sub\n      swap1\n      return\n        /* \"Lottery.sol\":899:1044  function selectWinner() public view returns(address){\r... */\n    tag_14:\n        /* \"Lottery.sol\":943:950  address */\n      0x00\n        /* \"Lottery.sol\":984:991  manager */\n      dup1\n      0x00\n      swap1\n      sload\n      swap1\n      0x0100\n      exp\n      swap1\n      div\n      0xffffffffffffffffffffffffffffffffffffffff\n      and\n        /* \"Lottery.sol\":970:991  msg.sender == manager */\n      0xffffffffffffffffffffffffffffffffffffffff\n      and\n        /* \"Lottery.sol\":970:980  msg.sender */\n      caller\n        /* \"Lottery.sol\":970:991  msg.sender == manager */\n      0xffffffffffffffffffffffffffffffffffffffff\n      and\n      eq\n        /* \"Lottery.sol\":962:992  require(msg.sender == manager) */\n      tag_38\n      jumpi\n      0x00\n      dup1\n      revert\n    tag_38:\n        /* \"Lottery.sol\":1034:1035  3 */\n      0x03\n        /* \"Lottery.sol\":1011:1023  participants */\n      0x01\n        /* \"Lottery.sol\":1011:1030  participants.length */\n      dup1\n      sload\n      swap1\n      pop\n        /* \"Lottery.sol\":1011:1035  participants.length >= 3 */\n      lt\n      iszero\n        /* \"Lottery.sol\":1003:1036  require(participants.length >= 3) */\n      tag_39\n      jumpi\n      0x00\n      dup1\n      revert\n    tag_39:\n        /* \"Lottery.sol\":899:1044  function selectWinner() public view returns(address){\r... */\n      swap1\n      jump\t// out\n        /* \"Lottery.sol\":125:162  address payable[] public participants */\n    tag_21:\n      0x01\n      dup2\n      dup2\n      sload\n      dup2\n      lt\n      tag_40\n      jumpi\n      0x00\n      dup1\n      revert\n    tag_40:\n      swap1\n      0x00\n      mstore\n      keccak256(0x00, 0x20)\n      add\n      0x00\n      swap2\n      pop\n      sload\n      swap1\n      0x0100\n      exp\n      swap1\n      div\n      0xffffffffffffffffffffffffffffffffffffffff\n      and\n      dup2\n      jump\t// out\n        /* \"Lottery.sol\":96:118  address public manager */\n    tag_26:\n      0x00\n      dup1\n      sload\n      swap1\n      0x0100\n      exp\n      swap1\n      div\n      0xffffffffffffffffffffffffffffffffffffffff\n      and\n      dup2\n      jump\t// out\n        /* \"Lottery.sol\":735:891  function random() public view returns(uint){\r... */\n    tag_30:\n        /* \"Lottery.sol\":773:777  uint */\n      0x00\n        /* \"Lottery.sol\":828:844  block.difficulty */\n      difficulty\n        /* \"Lottery.sol\":845:860  block.timestamp */\n      timestamp\n        /* \"Lottery.sol\":861:873  participants */\n      0x01\n        /* \"Lottery.sol\":861:880  participants.length */\n      dup1\n      sload\n      swap1\n      pop\n        /* \"Lottery.sol\":811:881  abi.encodePacked(block.difficulty,block.timestamp,participants.length) */\n      add(0x20, mload(0x40))\n      tag_43\n      swap4\n      swap3\n      swap2\n      swap1\n      tag_44\n      jump\t// in\n    tag_43:\n      mload(0x40)\n      0x20\n      dup2\n      dup4\n      sub\n      sub\n      dup2\n      mstore\n      swap1\n      0x40\n      mstore\n        /* \"Lottery.sol\":801:882  keccak256(abi.encodePacked(block.difficulty,block.timestamp,participants.length)) */\n      dup1\n      mload\n      swap1\n      0x20\n      add\n      keccak256\n        /* \"Lottery.sol\":796:883  uint(keccak256(abi.encodePacked(block.difficulty,block.timestamp,participants.length))) */\n      0x00\n      shr\n        /* \"Lottery.sol\":789:883  return uint(keccak256(abi.encodePacked(block.difficulty,block.timestamp,participants.length))) */\n      swap1\n      pop\n        /* \"Lottery.sol\":735:891  function random() public view returns(uint){\r... */\n      swap1\n      jump\t// out\n        /* \"Lottery.sol\":594:727  function getMoney() public view returns(uint){\r... */\n    tag_35:\n        /* \"Lottery.sol\":634:638  uint */\n      0x00\n        /* \"Lottery.sol\":672:679  manager */\n      dup1\n      0x00\n      swap1\n      sload\n      swap1\n      0x0100\n      exp\n      swap1\n      div\n      0xffffffffffffffffffffffffffffffffffffffff\n      and\n        /* \"Lottery.sol\":658:679  msg.sender == manager */\n      0xffffffffffffffffffffffffffffffffffffffff\n      and\n        /* \"Lottery.sol\":658:668  msg.sender */\n      caller\n        /* \"Lottery.sol\":658:679  msg.sender == manager */\n      0xffffffffffffffffffffffffffffffffffffffff\n      and\n      eq\n        /* \"Lottery.sol\":650:680  require(msg.sender == manager) */\n      tag_46\n      jumpi\n      0x00\n      dup1\n      revert\n    tag_46:\n        /* \"Lottery.sol\":698:719  address(this).balance */\n      selfbalance\n        /* \"Lottery.sol\":691:719  return address(this).balance */\n      swap1\n      pop\n        /* \"Lottery.sol\":594:727  function getMoney() public view returns(uint){\r... */\n      swap1\n      jump\t// out\n        /* \"#utility.yul\":7:146   */\n    tag_48:\n        /* \"#utility.yul\":53:58   */\n      0x00\n        /* \"#utility.yul\":91:97   */\n      dup2\n        /* \"#utility.yul\":78:98   */\n      calldataload\n        /* \"#utility.yul\":69:98   */\n      swap1\n      pop\n        /* \"#utility.yul\":107:140   */\n      tag_50\n        /* \"#utility.yul\":134:139   */\n      dup2\n        /* \"#utility.yul\":107:140   */\n      tag_51\n      jump\t// in\n    tag_50:\n        /* \"#utility.yul\":7:146   */\n      swap3\n      swap2\n      pop\n      pop\n      jump\t// out\n        /* \"#utility.yul\":152:481   */\n    tag_20:\n        /* \"#utility.yul\":211:217   */\n      0x00\n        /* \"#utility.yul\":260:262   */\n      0x20\n        /* \"#utility.yul\":248:257   */\n      dup3\n        /* \"#utility.yul\":239:246   */\n      dup5\n        /* \"#utility.yul\":235:258   */\n      sub\n        /* \"#utility.yul\":231:263   */\n      slt\n        /* \"#utility.yul\":228:347   */\n      iszero\n      tag_53\n      jumpi\n        /* \"#utility.yul\":266:345   */\n      tag_54\n      tag_55\n      jump\t// in\n    tag_54:\n        /* \"#utility.yul\":228:347   */\n    tag_53:\n        /* \"#utility.yul\":386:387   */\n      0x00\n        /* \"#utility.yul\":411:464   */\n      tag_56\n        /* \"#utility.yul\":456:463   */\n      dup5\n        /* \"#utility.yul\":447:453   */\n      dup3\n        /* \"#utility.yul\":436:445   */\n      dup6\n        /* \"#utility.yul\":432:454   */\n      add\n        /* \"#utility.yul\":411:464   */\n      tag_48\n      jump\t// in\n    tag_56:\n        /* \"#utility.yul\":401:464   */\n      swap2\n      pop\n        /* \"#utility.yul\":357:474   */\n      pop\n        /* \"#utility.yul\":152:481   */\n      swap3\n      swap2\n      pop\n      pop\n      jump\t// out\n        /* \"#utility.yul\":487:629   */\n    tag_57:\n        /* \"#utility.yul\":590:622   */\n      tag_59\n        /* \"#utility.yul\":616:621   */\n      dup2\n        /* \"#utility.yul\":590:622   */\n      tag_60\n      jump\t// in\n    tag_59:\n        /* \"#utility.yul\":585:588   */\n      dup3\n        /* \"#utility.yul\":578:623   */\n      mstore\n        /* \"#utility.yul\":487:629   */\n      pop\n      pop\n      jump\t// out\n        /* \"#utility.yul\":635:753   */\n    tag_61:\n        /* \"#utility.yul\":722:746   */\n      tag_63\n        /* \"#utility.yul\":740:745   */\n      dup2\n        /* \"#utility.yul\":722:746   */\n      tag_64\n      jump\t// in\n    tag_63:\n        /* \"#utility.yul\":717:720   */\n      dup3\n        /* \"#utility.yul\":710:747   */\n      mstore\n        /* \"#utility.yul\":635:753   */\n      pop\n      pop\n      jump\t// out\n        /* \"#utility.yul\":759:877   */\n    tag_65:\n        /* \"#utility.yul\":846:870   */\n      tag_67\n        /* \"#utility.yul\":864:869   */\n      dup2\n        /* \"#utility.yul\":846:870   */\n      tag_68\n      jump\t// in\n    tag_67:\n        /* \"#utility.yul\":841:844   */\n      dup3\n        /* \"#utility.yul\":834:871   */\n      mstore\n        /* \"#utility.yul\":759:877   */\n      pop\n      pop\n      jump\t// out\n        /* \"#utility.yul\":883:1040   */\n    tag_69:\n        /* \"#utility.yul\":988:1033   */\n      tag_71\n        /* \"#utility.yul\":1008:1032   */\n      tag_72\n        /* \"#utility.yul\":1026:1031   */\n      dup3\n        /* \"#utility.yul\":1008:1032   */\n      tag_68\n      jump\t// in\n    tag_72:\n        /* \"#utility.yul\":988:1033   */\n      tag_73\n      jump\t// in\n    tag_71:\n        /* \"#utility.yul\":983:986   */\n      dup3\n        /* \"#utility.yul\":976:1034   */\n      mstore\n        /* \"#utility.yul\":883:1040   */\n      pop\n      pop\n      jump\t// out\n        /* \"#utility.yul\":1046:1584   */\n    tag_44:\n        /* \"#utility.yul\":1214:1217   */\n      0x00\n        /* \"#utility.yul\":1229:1304   */\n      tag_75\n        /* \"#utility.yul\":1300:1303   */\n      dup3\n        /* \"#utility.yul\":1291:1297   */\n      dup7\n        /* \"#utility.yul\":1229:1304   */\n      tag_69\n      jump\t// in\n    tag_75:\n        /* \"#utility.yul\":1329:1331   */\n      0x20\n        /* \"#utility.yul\":1324:1327   */\n      dup3\n        /* \"#utility.yul\":1320:1332   */\n      add\n        /* \"#utility.yul\":1313:1332   */\n      swap2\n      pop\n        /* \"#utility.yul\":1342:1417   */\n      tag_76\n        /* \"#utility.yul\":1413:1416   */\n      dup3\n        /* \"#utility.yul\":1404:1410   */\n      dup6\n        /* \"#utility.yul\":1342:1417   */\n      tag_69\n      jump\t// in\n    tag_76:\n        /* \"#utility.yul\":1442:1444   */\n      0x20\n        /* \"#utility.yul\":1437:1440   */\n      dup3\n        /* \"#utility.yul\":1433:1445   */\n      add\n        /* \"#utility.yul\":1426:1445   */\n      swap2\n      pop\n        /* \"#utility.yul\":1455:1530   */\n      tag_77\n        /* \"#utility.yul\":1526:1529   */\n      dup3\n        /* \"#utility.yul\":1517:1523   */\n      dup5\n        /* \"#utility.yul\":1455:1530   */\n      tag_69\n      jump\t// in\n    tag_77:\n        /* \"#utility.yul\":1555:1557   */\n      0x20\n        /* \"#utility.yul\":1550:1553   */\n      dup3\n        /* \"#utility.yul\":1546:1558   */\n      add\n        /* \"#utility.yul\":1539:1558   */\n      swap2\n      pop\n        /* \"#utility.yul\":1575:1578   */\n      dup2\n        /* \"#utility.yul\":1568:1578   */\n      swap1\n      pop\n        /* \"#utility.yul\":1046:1584   */\n      swap5\n      swap4\n      pop\n      pop\n      pop\n      pop\n      jump\t// out\n        /* \"#utility.yul\":1590:1812   */\n    tag_16:\n        /* \"#utility.yul\":1683:1687   */\n      0x00\n        /* \"#utility.yul\":1721:1723   */\n      0x20\n        /* \"#utility.yul\":1710:1719   */\n      dup3\n        /* \"#utility.yul\":1706:1724   */\n      add\n        /* \"#utility.yul\":1698:1724   */\n      swap1\n      pop\n        /* \"#utility.yul\":1734:1805   */\n      tag_79\n        /* \"#utility.yul\":1802:1803   */\n      0x00\n        /* \"#utility.yul\":1791:1800   */\n      dup4\n        /* \"#utility.yul\":1787:1804   */\n      add\n        /* \"#utility.yul\":1778:1784   */\n      dup5\n        /* \"#utility.yul\":1734:1805   */\n      tag_61\n      jump\t// in\n    tag_79:\n        /* \"#utility.yul\":1590:1812   */\n      swap3\n      swap2\n      pop\n      pop\n      jump\t// out\n        /* \"#utility.yul\":1818:2072   */\n    tag_23:\n        /* \"#utility.yul\":1927:1931   */\n      0x00\n        /* \"#utility.yul\":1965:1967   */\n      0x20\n        /* \"#utility.yul\":1954:1963   */\n      dup3\n        /* \"#utility.yul\":1950:1968   */\n      add\n        /* \"#utility.yul\":1942:1968   */\n      swap1\n      pop\n        /* \"#utility.yul\":1978:2065   */\n      tag_81\n        /* \"#utility.yul\":2062:2063   */\n      0x00\n        /* \"#utility.yul\":2051:2060   */\n      dup4\n        /* \"#utility.yul\":2047:2064   */\n      add\n        /* \"#utility.yul\":2038:2044   */\n      dup5\n        /* \"#utility.yul\":1978:2065   */\n      tag_57\n      jump\t// in\n    tag_81:\n        /* \"#utility.yul\":1818:2072   */\n      swap3\n      swap2\n      pop\n      pop\n      jump\t// out\n        /* \"#utility.yul\":2078:2300   */\n    tag_32:\n        /* \"#utility.yul\":2171:2175   */\n      0x00\n        /* \"#utility.yul\":2209:2211   */\n      0x20\n        /* \"#utility.yul\":2198:2207   */\n      dup3\n        /* \"#utility.yul\":2194:2212   */\n      add\n        /* \"#utility.yul\":2186:2212   */\n      swap1\n      pop\n        /* \"#utility.yul\":2222:2293   */\n      tag_83\n        /* \"#utility.yul\":2290:2291   */\n      0x00\n        /* \"#utility.yul\":2279:2288   */\n      dup4\n        /* \"#utility.yul\":2275:2292   */\n      add\n        /* \"#utility.yul\":2266:2272   */\n      dup5\n        /* \"#utility.yul\":2222:2293   */\n      tag_65\n      jump\t// in\n    tag_83:\n        /* \"#utility.yul\":2078:2300   */\n      swap3\n      swap2\n      pop\n      pop\n      jump\t// out\n        /* \"#utility.yul\":2387:2483   */\n    tag_64:\n        /* \"#utility.yul\":2424:2431   */\n      0x00\n        /* \"#utility.yul\":2453:2477   */\n      tag_87\n        /* \"#utility.yul\":2471:2476   */\n      dup3\n        /* \"#utility.yul\":2453:2477   */\n      tag_88\n      jump\t// in\n    tag_87:\n        /* \"#utility.yul\":2442:2477   */\n      swap1\n      pop\n        /* \"#utility.yul\":2387:2483   */\n      swap2\n      swap1\n      pop\n      jump\t// out\n        /* \"#utility.yul\":2489:2593   */\n    tag_60:\n        /* \"#utility.yul\":2534:2541   */\n      0x00\n        /* \"#utility.yul\":2563:2587   */\n      tag_90\n        /* \"#utility.yul\":2581:2586   */\n      dup3\n        /* \"#utility.yul\":2563:2587   */\n      tag_88\n      jump\t// in\n    tag_90:\n        /* \"#utility.yul\":2552:2587   */\n      swap1\n      pop\n        /* \"#utility.yul\":2489:2593   */\n      swap2\n      swap1\n      pop\n      jump\t// out\n        /* \"#utility.yul\":2599:2725   */\n    tag_88:\n        /* \"#utility.yul\":2636:2643   */\n      0x00\n        /* \"#utility.yul\":2676:2718   */\n      0xffffffffffffffffffffffffffffffffffffffff\n        /* \"#utility.yul\":2669:2674   */\n      dup3\n        /* \"#utility.yul\":2665:2719   */\n      and\n        /* \"#utility.yul\":2654:2719   */\n      swap1\n      pop\n        /* \"#utility.yul\":2599:2725   */\n      swap2\n      swap1\n      pop\n      jump\t// out\n        /* \"#utility.yul\":2731:2808   */\n    tag_68:\n        /* \"#utility.yul\":2768:2775   */\n      0x00\n        /* \"#utility.yul\":2797:2802   */\n      dup2\n        /* \"#utility.yul\":2786:2802   */\n      swap1\n      pop\n        /* \"#utility.yul\":2731:2808   */\n      swap2\n      swap1\n      pop\n      jump\t// out\n        /* \"#utility.yul\":2814:2893   */\n    tag_73:\n        /* \"#utility.yul\":2853:2860   */\n      0x00\n        /* \"#utility.yul\":2882:2887   */\n      dup2\n        /* \"#utility.yul\":2871:2887   */\n      swap1\n      pop\n        /* \"#utility.yul\":2814:2893   */\n      swap2\n      swap1\n      pop\n      jump\t// out\n        /* \"#utility.yul\":3022:3139   */\n    tag_55:\n        /* \"#utility.yul\":3131:3132   */\n      0x00\n        /* \"#utility.yul\":3128:3129   */\n      dup1\n        /* \"#utility.yul\":3121:3133   */\n      revert\n        /* \"#utility.yul\":3145:3267   */\n    tag_51:\n        /* \"#utility.yul\":3218:3242   */\n      tag_98\n        /* \"#utility.yul\":3236:3241   */\n      dup2\n        /* \"#utility.yul\":3218:3242   */\n      tag_68\n      jump\t// in\n    tag_98:\n        /* \"#utility.yul\":3211:3216   */\n      dup2\n        /* \"#utility.yul\":3208:3243   */\n      eq\n        /* \"#utility.yul\":3198:3261   */\n      tag_99\n      jumpi\n        /* \"#utility.yul\":3257:3258   */\n      0x00\n        /* \"#utility.yul\":3254:3255   */\n      dup1\n        /* \"#utility.yul\":3247:3259   */\n      revert\n        /* \"#utility.yul\":3198:3261   */\n    tag_99:\n        /* \"#utility.yul\":3145:3267   */\n      pop\n      jump\t// out\n\n    auxdata: 0xa2646970667358221220788a853cc4118d3729c9650b4217ac5f3ebc41ac22eb6f5d60867dac5c5a7eb864736f6c63430008070033\n}\n",
				"bytecode": {
					"linkReferences": {},
					"object": "608060405234801561001057600080fd5b50336000806101000a81548173ffffffffffffffffffffffffffffffffffffffff021916908373ffffffffffffffffffffffffffffffffffffffff1602179055506104e7806100606000396000f3fe60806040526004361061004e5760003560e01c806333a99e04146100d157806335c1d349146100fc578063481c6a75146101395780635ec01e4d1461016457806398e1b4101461018f576100cc565b366100cc57670de0b6b3a7640000341461006757600080fd5b6001339080600181540180825580915050600190039060005260206000200160009091909190916101000a81548173ffffffffffffffffffffffffffffffffffffffff021916908373ffffffffffffffffffffffffffffffffffffffff160217905550005b600080fd5b3480156100dd57600080fd5b506100e66101ba565b6040516100f391906103ec565b60405180910390f35b34801561010857600080fd5b50610123600480360381019061011e919061033e565b61022b565b6040516101309190610407565b60405180910390f35b34801561014557600080fd5b5061014e61026a565b60405161015b91906103ec565b60405180910390f35b34801561017057600080fd5b5061017961028e565b6040516101869190610422565b60405180910390f35b34801561019b57600080fd5b506101a46102c8565b6040516101b19190610422565b60405180910390f35b60008060009054906101000a900473ffffffffffffffffffffffffffffffffffffffff1673ffffffffffffffffffffffffffffffffffffffff163373ffffffffffffffffffffffffffffffffffffffff161461021557600080fd5b6003600180549050101561022857600080fd5b90565b6001818154811061023b57600080fd5b906000526020600020016000915054906101000a900473ffffffffffffffffffffffffffffffffffffffff1681565b60008054906101000a900473ffffffffffffffffffffffffffffffffffffffff1681565b600044426001805490506040516020016102aa939291906103af565b6040516020818303038152906040528051906020012060001c905090565b60008060009054906101000a900473ffffffffffffffffffffffffffffffffffffffff1673ffffffffffffffffffffffffffffffffffffffff163373ffffffffffffffffffffffffffffffffffffffff161461032357600080fd5b47905090565b6000813590506103388161049a565b92915050565b60006020828403121561035457610353610495565b5b600061036284828501610329565b91505092915050565b6103748161044f565b82525050565b6103838161043d565b82525050565b61039281610481565b82525050565b6103a96103a482610481565b61048b565b82525050565b60006103bb8286610398565b6020820191506103cb8285610398565b6020820191506103db8284610398565b602082019150819050949350505050565b6000602082019050610401600083018461037a565b92915050565b600060208201905061041c600083018461036b565b92915050565b60006020820190506104376000830184610389565b92915050565b600061044882610461565b9050919050565b600061045a82610461565b9050919050565b600073ffffffffffffffffffffffffffffffffffffffff82169050919050565b6000819050919050565b6000819050919050565b600080fd5b6104a381610481565b81146104ae57600080fd5b5056fea2646970667358221220788a853cc4118d3729c9650b4217ac5f3ebc41ac22eb6f5d60867dac5c5a7eb864736f6c63430008070033",
					"opcodes": "PUSH1 0x80 PUSH1 0x40 MSTORE CALLVALUE DUP1 ISZERO PUSH2 0x10 JUMPI PUSH1 0x0 DUP1 REVERT JUMPDEST POP CALLER PUSH1 0x0 DUP1 PUSH2 0x100 EXP DUP2 SLOAD DUP2 PUSH20 0xFFFFFFFFFFFFFFFFFFFFFFFFFFFFFFFFFFFFFFFF MUL NOT AND SWAP1 DUP4 PUSH20 0xFFFFFFFFFFFFFFFFFFFFFFFFFFFFFFFFFFFFFFFF AND MUL OR SWAP1 SSTORE POP PUSH2 0x4E7 DUP1 PUSH2 0x60 PUSH1 0x0 CODECOPY PUSH1 0x0 RETURN INVALID PUSH1 0x80 PUSH1 0x40 MSTORE PUSH1 0x4 CALLDATASIZE LT PUSH2 0x4E JUMPI PUSH1 0x0 CALLDATALOAD PUSH1 0xE0 SHR DUP1 PUSH4 0x33A99E04 EQ PUSH2 0xD1 JUMPI DUP1 PUSH4 0x35C1D349 EQ PUSH2 0xFC JUMPI DUP1 PUSH4 0x481C6A75 EQ PUSH2 0x139 JUMPI DUP1 PUSH4 0x5EC01E4D EQ PUSH2 0x164 JUMPI DUP1 PUSH4 0x98E1B410 EQ PUSH2 0x18F JUMPI PUSH2 0xCC JUMP JUMPDEST CALLDATASIZE PUSH2 0xCC JUMPI PUSH8 0xDE0B6B3A7640000 CALLVALUE EQ PUSH2 0x67 JUMPI PUSH1 0x0 DUP1 REVERT JUMPDEST PUSH1 0x1 CALLER SWAP1 DUP1 PUSH1 0x1 DUP2 SLOAD ADD DUP1 DUP3 SSTORE DUP1 SWAP2 POP POP PUSH1 0x1 SWAP1 SUB SWAP1 PUSH1 0x0 MSTORE PUSH1 0x20 PUSH1 0x0 KECCAK256 ADD PUSH1 0x0 SWAP1 SWAP2 SWAP1 SWAP2 SWAP1 SWAP2 PUSH2 0x100 EXP DUP2 SLOAD DUP2 PUSH20 0xFFFFFFFFFFFFFFFFFFFFFFFFFFFFFFFFFFFFFFFF MUL NOT AND SWAP1 DUP4 PUSH20 0xFFFFFFFFFFFFFFFFFFFFFFFFFFFFFFFFFFFFFFFF AND MUL OR SWAP1 SSTORE POP STOP JUMPDEST PUSH1 0x0 DUP1 REVERT JUMPDEST CALLVALUE DUP1 ISZERO PUSH2 0xDD JUMPI PUSH1 0x0 DUP1 REVERT JUMPDEST POP PUSH2 0xE6 PUSH2 0x1BA JUMP JUMPDEST PUSH1 0x40 MLOAD PUSH2 0xF3 SWAP2 SWAP1 PUSH2 0x3EC JUMP JUMPDEST PUSH1 0x40 MLOAD DUP1 SWAP2 SUB SWAP1 RETURN JUMPDEST CALLVALUE DUP1 ISZERO PUSH2 0x108 JUMPI PUSH1 0x0 DUP1 REVERT JUMPDEST POP PUSH2 0x123 PUSH1 0x4 DUP1 CALLDATASIZE SUB DUP2 ADD SWAP1 PUSH2 0x11E SWAP2 SWAP1 PUSH2 0x33E JUMP JUMPDEST PUSH2 0x22B JUMP JUMPDEST PUSH1 0x40 MLOAD PUSH2 0x130 SWAP2 SWAP1 PUSH2 0x407 JUMP JUMPDEST PUSH1 0x40 MLOAD DUP1 SWAP2 SUB SWAP1 RETURN JUMPDEST CALLVALUE DUP1 ISZERO PUSH2 0x145 JUMPI PUSH1 0x0 DUP1 REVERT JUMPDEST POP PUSH2 0x14E PUSH2 0x26A JUMP JUMPDEST PUSH1 0x40 MLOAD PUSH2 0x15B SWAP2 SWAP1 PUSH2 0x3EC JUMP JUMPDEST PUSH1 0x40 MLOAD DUP1 SWAP2 SUB SWAP1 RETURN JUMPDEST CALLVALUE DUP1 ISZERO PUSH2 0x170 JUMPI PUSH1 0x0 DUP1 REVERT JUMPDEST POP PUSH2 0x179 PUSH2 0x28E JUMP JUMPDEST PUSH1 0x40 MLOAD PUSH2 0x186 SWAP2 SWAP1 PUSH2 0x422 JUMP JUMPDEST PUSH1 0x40 MLOAD DUP1 SWAP2 SUB SWAP1 RETURN JUMPDEST CALLVALUE DUP1 ISZERO PUSH2 0x19B JUMPI PUSH1 0x0 DUP1 REVERT JUMPDEST POP PUSH2 0x1A4 PUSH2 0x2C8 JUMP JUMPDEST PUSH1 0x40 MLOAD PUSH2 0x1B1 SWAP2 SWAP1 PUSH2 0x422 JUMP JUMPDEST PUSH1 0x40 MLOAD DUP1 SWAP2 SUB SWAP1 RETURN JUMPDEST PUSH1 0x0 DUP1 PUSH1 0x0 SWAP1 SLOAD SWAP1 PUSH2 0x100 EXP SWAP1 DIV PUSH20 0xFFFFFFFFFFFFFFFFFFFFFFFFFFFFFFFFFFFFFFFF AND PUSH20 0xFFFFFFFFFFFFFFFFFFFFFFFFFFFFFFFFFFFFFFFF AND CALLER PUSH20 0xFFFFFFFFFFFFFFFFFFFFFFFFFFFFFFFFFFFFFFFF AND EQ PUSH2 0x215 JUMPI PUSH1 0x0 DUP1 REVERT JUMPDEST PUSH1 0x3 PUSH1 0x1 DUP1 SLOAD SWAP1 POP LT ISZERO PUSH2 0x228 JUMPI PUSH1 0x0 DUP1 REVERT JUMPDEST SWAP1 JUMP JUMPDEST PUSH1 0x1 DUP2 DUP2 SLOAD DUP2 LT PUSH2 0x23B JUMPI PUSH1 0x0 DUP1 REVERT JUMPDEST SWAP1 PUSH1 0x0 MSTORE PUSH1 0x20 PUSH1 0x0 KECCAK256 ADD PUSH1 0x0 SWAP2 POP SLOAD SWAP1 PUSH2 0x100 EXP SWAP1 DIV PUSH20 0xFFFFFFFFFFFFFFFFFFFFFFFFFFFFFFFFFFFFFFFF AND DUP2 JUMP JUMPDEST PUSH1 0x0 DUP1 SLOAD SWAP1 PUSH2 0x100 EXP SWAP1 DIV PUSH20 0xFFFFFFFFFFFFFFFFFFFFFFFFFFFFFFFFFFFFFFFF AND DUP2 JUMP JUMPDEST PUSH1 0x0 DIFFICULTY TIMESTAMP PUSH1 0x1 DUP1 SLOAD SWAP1 POP PUSH1 0x40 MLOAD PUSH1 0x20 ADD PUSH2 0x2AA SWAP4 SWAP3 SWAP2 SWAP1 PUSH2 0x3AF JUMP JUMPDEST PUSH1 0x40 MLOAD PUSH1 0x20 DUP2 DUP4 SUB SUB DUP2 MSTORE SWAP1 PUSH1 0x40 MSTORE DUP1 MLOAD SWAP1 PUSH1 0x20 ADD KECCAK256 PUSH1 0x0 SHR SWAP1 POP SWAP1 JUMP JUMPDEST PUSH1 0x0 DUP1 PUSH1 0x0 SWAP1 SLOAD SWAP1 PUSH2 0x100 EXP SWAP1 DIV PUSH20 0xFFFFFFFFFFFFFFFFFFFFFFFFFFFFFFFFFFFFFFFF AND PUSH20 0xFFFFFFFFFFFFFFFFFFFFFFFFFFFFFFFFFFFFFFFF AND CALLER PUSH20 0xFFFFFFFFFFFFFFFFFFFFFFFFFFFFFFFFFFFFFFFF AND EQ PUSH2 0x323 JUMPI PUSH1 0x0 DUP1 REVERT JUMPDEST SELFBALANCE SWAP1 POP SWAP1 JUMP JUMPDEST PUSH1 0x0 DUP2 CALLDATALOAD SWAP1 POP PUSH2 0x338 DUP2 PUSH2 0x49A JUMP JUMPDEST SWAP3 SWAP2 POP POP JUMP JUMPDEST PUSH1 0x0 PUSH1 0x20 DUP3 DUP5 SUB SLT ISZERO PUSH2 0x354 JUMPI PUSH2 0x353 PUSH2 0x495 JUMP JUMPDEST JUMPDEST PUSH1 0x0 PUSH2 0x362 DUP5 DUP3 DUP6 ADD PUSH2 0x329 JUMP JUMPDEST SWAP2 POP POP SWAP3 SWAP2 POP POP JUMP JUMPDEST PUSH2 0x374 DUP2 PUSH2 0x44F JUMP JUMPDEST DUP3 MSTORE POP POP JUMP JUMPDEST PUSH2 0x383 DUP2 PUSH2 0x43D JUMP JUMPDEST DUP3 MSTORE POP POP JUMP JUMPDEST PUSH2 0x392 DUP2 PUSH2 0x481 JUMP JUMPDEST DUP3 MSTORE POP POP JUMP JUMPDEST PUSH2 0x3A9 PUSH2 0x3A4 DUP3 PUSH2 0x481 JUMP JUMPDEST PUSH2 0x48B JUMP JUMPDEST DUP3 MSTORE POP POP JUMP JUMPDEST PUSH1 0x0 PUSH2 0x3BB DUP3 DUP7 PUSH2 0x398 JUMP JUMPDEST PUSH1 0x20 DUP3 ADD SWAP2 POP PUSH2 0x3CB DUP3 DUP6 PUSH2 0x398 JUMP JUMPDEST PUSH1 0x20 DUP3 ADD SWAP2 POP PUSH2 0x3DB DUP3 DUP5 PUSH2 0x398 JUMP JUMPDEST PUSH1 0x20 DUP3 ADD SWAP2 POP DUP2 SWAP1 POP SWAP5 SWAP4 POP POP POP POP JUMP JUMPDEST PUSH1 0x0 PUSH1 0x20 DUP3 ADD SWAP1 POP PUSH2 0x401 PUSH1 0x0 DUP4 ADD DUP5 PUSH2 0x37A JUMP JUMPDEST SWAP3 SWAP2 POP POP JUMP JUMPDEST PUSH1 0x0 PUSH1 0x20 DUP3 ADD SWAP1 POP PUSH2 0x41C PUSH1 0x0 DUP4 ADD DUP5 PUSH2 0x36B JUMP JUMPDEST SWAP3 SWAP2 POP POP JUMP JUMPDEST PUSH1 0x0 PUSH1 0x20 DUP3 ADD SWAP1 POP PUSH2 0x437 PUSH1 0x0 DUP4 ADD DUP5 PUSH2 0x389 JUMP JUMPDEST SWAP3 SWAP2 POP POP JUMP JUMPDEST PUSH1 0x0 PUSH2 0x448 DUP3 PUSH2 0x461 JUMP JUMPDEST SWAP1 POP SWAP2 SWAP1 POP JUMP JUMPDEST PUSH1 0x0 PUSH2 0x45A DUP3 PUSH2 0x461 JUMP JUMPDEST SWAP1 POP SWAP2 SWAP1 POP JUMP JUMPDEST PUSH1 0x0 PUSH20 0xFFFFFFFFFFFFFFFFFFFFFFFFFFFFFFFFFFFFFFFF DUP3 AND SWAP1 POP SWAP2 SWAP1 POP JUMP JUMPDEST PUSH1 0x0 DUP2 SWAP1 POP SWAP2 SWAP1 POP JUMP JUMPDEST PUSH1 0x0 DUP2 SWAP1 POP SWAP2 SWAP1 POP JUMP JUMPDEST PUSH1 0x0 DUP1 REVERT JUMPDEST PUSH2 0x4A3 DUP2 PUSH2 0x481 JUMP JUMPDEST DUP2 EQ PUSH2 0x4AE JUMPI PUSH1 0x0 DUP1 REVERT JUMPDEST POP JUMP INVALID LOG2 PUSH5 0x6970667358 0x22 SLT KECCAK256 PUSH25 0x8A853CC4118D3729C9650B4217AC5F3EBC41AC22EB6F5D6086 PUSH30 0xAC5C5A7EB864736F6C634300080700330000000000000000000000000000 "
				},
				"gasEstimates": {
					"creation": {
						"codeDepositCost": "251000",
						"executionCost": "24560",
						"totalCost": "275560"
					},
					"external": {
						"getMoney()": "2575",
						"manager()": "2533",
						"participants(uint256)": "4956",
						"random()": "infinite",
						"selectWinner()": "4660"
					}
				},
				"methodIdentifiers": {
					"getMoney()": "98e1b410",
					"manager()": "481c6a75",
					"participants(uint256)": "35c1d349",
					"random()": "5ec01e4d",
					"selectWinner()": "33a99e04"
				}
			},
			"storageLayout": {
				"storage": [
					{
						"astId": 3,
						"contract": "Lottery.sol:Lottery",
						"label": "manager",
						"offset": 0,
						"slot": "0",
						"type": "t_address"
					},
					{
						"astId": 6,
						"contract": "Lottery.sol:Lottery",
						"label": "participants",
						"offset": 0,
						"slot": "1",
						"type": "t_array(t_address_payable)dyn_storage"
					}
				],
				"types": {
					"t_address": {
						"encoding": "inplace",
						"label": "address",
						"numberOfBytes": "20"
					},
					"t_address_payable": {
						"encoding": "inplace",
						"label": "address payable",
						"numberOfBytes": "20"
					},
					"t_array(t_address_payable)dyn_storage": {
						"base": "t_address_payable",
						"encoding": "dynamic_array",
						"label": "address payable[]",
						"numberOfBytes": "32"
					}
				}
			},
			"userdoc": {
				"kind": "user",
				"methods": {},
				"version": 1
			}
		}
	}
}